:1000000009C021C020C020C01EC01DC01CC01BC014
:100010001AC019C011241FBECFE9CDBF10E0A0E661
:10002000B0E0ECEDF2E002C005900D92AE36B10703
:10003000D9F720E0AEE6B0E001C01D92A237B207CA
:10004000E1F7FDD049C1DCCF1F920F920FB60F929E
:1000500011242F933F934F935F936F937F938F93CD
:100060009F93AF93BF9320917000309171004091A6
:100070006200509163008091700090917100840F34
:10008000951F909371008093700080916400882385
:1000900009F459C080917000909171008217930704
:1000A000F0F44091690050916A0060916B0070918A
:1000B0006C00DB01CA01B695A7959795879540FF1F
:1000C00005C023E0822720E2A227B0588093690070
:1000D00090936A00A0936B00B0936C0016C080915F
:1000E0006E0090916F00019690936F0080936E0068
:1000F00020916E0030916F008091600090916100BE
:100100002817390710F01092640040916500509153
:1001100066006091670070916800DB01CA01B695C6
:10012000A7959795879540FF05C023E0822720E299
:10013000A227B0588093650090936600A093670053
:10014000B093680054C08091700090917100821744
:100150009307F0F44091650050916600609167004C
:1001600070916800DB01CA01B695A79597958795B0
:1001700040FF05C023E0822720E2A227B0588093E9
:10018000650090936600A0936700B093680012C06A
:1001900080916E0090916F00019790936F00809313
:1001A0006E0080916E0090916F00892B19F481E0B0
:1001B000809364004091690050916A0060916B00E7
:1001C00070916C00DB01CA01B695A795979587954C
:1001D00040FF05C023E0822720E2A227B058809389
:1001E000690090936A00A0936B00B0936C008091BB
:1001F000690090916A00A0916B00B0916C0086BF7D
:100200008091650090916600A0916700B0916800B0
:1002100089BDBF91AF919F918F917F916F915F91B8
:100220004F913F912F910F900FBE0F901F901895F7
:1002300083EA8FBD81E083BF82E089BF0895B89AC9
:10024000B99ABA98C298BC98C49AF2DF87E886B97E
:10025000789451E0B49926C0F8948091650090910B
:100260006600A0916700B091680080936900909348
:100270006A00A0936B00B0936C0010926F00109214
:100280006E005093640078948FE599E00197F1F740
:1002900000C00000B49BFECF8FE599E00197F1F715
:1002A00000C0000040E280E090E057B9369A3699ED
:1002B000FECF24B165B130E0362B820F931F415041
:1002C000A1F7892F992780959095F89490936300D2
:0C02D000809362007894BECFF894FFCFBA
:0E02DC005000C0FF0101000000010000000002
:00000001FF
